:2000000014C03AC0189559C05BC018958BC0FFFF66C04FC0BAFFF7FFF7FFF7FFF7FFF7FF7F
:20002000F7FFF7FFF7FF907FF7FF04E00EBF0FE50DBF11272227BED5000077D008E101BD66
:2000400008E001BDA89596D870D000E009BF0BBF0093BA0000E108B978947CD265D776D0D2
:20006000BDD0E4D050D12CD477278DD259D784D83DD32CC94FD8FFCFAFB682990EC051FFFD
:200080001895C0E0C3BFC8B7C0FF03C0C170C8BFD3945D7F5460AFBE189552FD1895C2E029
:2000A000C3BFDD24D2BEC8B7C170C8BF5260AFBE1895AFB6D394AFBE1895C0E0C8BB189574
:2000C000AFB6D2FD07C0C0E8C4BD38BB01961196AFBE1895C0E8C4BD0196AFBE1895AFB672
:2000E0000093BD00C0918E00CDBDC0918F00CCBD04E1C00FCABD00918E0008F403950BBD28
:200100000091BD00D0FD07C0C8E0C2BB32E038BBD160AFBE1895C8E0C2BB34E038BBDE7FFF
:20012000AFBE189530E038BB189500E008BB0FEF07BB00E008BB00E002BB0BE301BB00E0C8
:2001400002BB08E004BB08E005BB0895F89400270FBD02E00EBD919AF1E0E4EA28E0159152
:200160001F3F69F091980ED0169510F4919A01C0919808D02A95C1F7919A04D0EFCF9198C8
:200180007894089500270DBD0CBD07E6602E00270BBD6ABC08B7087108BFA89508B704FF6E
:2001A000FCCF0895636F70796C6566742C20536F6D655768657265204369747920536F6D8E
:2001C0006520436F2E204C7464204F70656E20536F75726365205E515EFFFF0011E029E00E
:2001E000E9D40535C1F00AEAD6D411E020E108E0D2D4239500E0CFD411E029E1F8E0E4E760
:2002000005910F3F19F0C7D42395FACF05E511E029E0C1D4E3CF11E029E1F1E0E9E0CAD477
:200220000F3F09F4089501932395F9CF11E020E1C1D400930001602E2395BCD4009301013C
:2002400011E022E1B7D400930201162D1170011709F03EC011E023E1ADD400930301162D66
:2002600012701695011709F033C011E024E1A2D400930401162D147016951695011709F01B
:2002800027C011E025E196D400930501162D1871169516951695011709F01AC011E026E1CD
:2002A00089D400930601162D107612951695011709F00EC011E027E17DD40F3F49F00093E9
:2002C0000701109101011370011709F001C0089501D0ACCF002711E022E15DD423955BD402
:2002E000239559D401E0239556D40027239553D400E0239550D408E011E020E14CD400E0BA
:20030000239549D4089500E50093820000E000938300CBD0A895829B089508B703FFFACF5F
:2003200003E00093BC000091BC000A950093BC0009F43CC02091000190D0209101018DD035
:200340008A98A8958299FDCF50D073FD02C0253541F0AED0A895829BFCCF08B703FFFACF4D
:20036000E2CF8A9803E00093BC00A8958299FDCFF1E0E0E000270093810037D073FD10C041
:2003800021930091810003950093810009F408C0A7D0A89508B703FD15C0829BEECFF9CF3C
:2003A0000091BC000A950093BC0011F4F1D608957FD0A895829BFCCF08B703FFFACF0AEAA7
:2003C0004CD0CFCF02910081023050F3109181001A95011729F798D073FD04C087D1F89451
:2003E00025E573FD2AEA39D0BCCF777F8A986ED0A895829BFDCFC9D6829BFACFA895829982
:20040000FDCFC3D68299FACF08B702FD24C00CB51DB5169507951093820000938300222793
:2004200008E0602E5DD0A89508B704FFFCCF829912C056D0A89508B703FFFCCF8894829B3A
:2004400001C0089427956A94A1F74AD0A89508B703FFFCCF829B786008958A9A929840D01A
:20046000A89508B703FFFCCF929A3AD0A89508B703FFFCCF929834D0A89508B703FFFCCFBD
:2004800008E0602E279510F4929A01C0929828D0A89508B703FFFCCF6A94A1F7929A20D09C
:2004A000A89508B703FFFCCF089503E315E402C008E11AE609BD18BD002713E00FBD1EBDF0
:2004C0000DBD0CBD08B7087008BF0895002711E00FBD1EBD0DBD0CBD08B70C7108BF0895FC
:2004E00000270FBD11E01EBD0DBD0CBD009182001091830009BD18BD069517950BBD1ABDF2
:2005000008B7087108BF08950AEA11E029E043D360908100F1E0E0E011E020E101913BD3A7
:2005200023956A94D9F7F1E0E0E0777F11E020E141D323956190061559F4009181000A95E6
:2005400000938100A9F705E511E029E024D30895786008959CD0103099F0173088F40BD621
:2005600096D0103069F0173058F480929F0000E607B901D69BD080929E0080909F00089554
:20058000BFD4F7D5E7CF00910301003049F1013009F0FFCF00910501003029F0013029F025
:2005A000023029F0FFCF00E003C002E301C001E4089DF00114E628E0EE0FFF1F5E7F08F468
:2005C00051600F2F011B50FD01C010F0F02FE3952A9591F7E93208F4E9E2E09362000895D0
:2005E00000919E000E3340F4093218F489D422E006C085D423E003C082D483D424E000918A
:200600000501003029F0013029F0023029F0FFCF18E103C01AE101C01CE1129F009262000E
:20062000A8D508956DD4A5D532D01730D8F7F6E0E6E7E10F08F4F395049100936700F6E051
:20064000EEE7E10F08F4F395049100936600F6E0E6E8E10F08F4F395049100936D00209165
:200660000601223010F006E001C002E000936800009369000895C0B8B0ACA8A4A0A0A0986C
:20068000908C8A88868418100C0A08060404A89505EC06B900EE07B909D0F6E0E8EC112778
:2006A0000591081510F41395FBCF26CC57D510D08092610053D50CD000916100081908F48D
:2006C0000095023098F7089530414C57626DA3FF369A3699FECF369A3699FECF85B0369AC5
:2006E0003699FECF05B1800E87940895D860686001D00895A8950ED5A3D0D3FF03C0F1E0FB
:20070000E9E030C000919200003081F0013089F0023091F0033099F00430A9F00530B1F0A0
:200720000630B9F00730C1F00830C9F0FFE0ECE319C0FFE0E0E416C0FFE0E4E413C0FFE0A8
:20074000E8E468600FC0FFE0EEE40CC0FFE0E8E509C0FFE0E4E606C0FFE0E8E603C0FFE086
:20076000ECE600C0D3FF07C0019100938D00119110938C0006C0059100938D001591109306
:200780008C000530A8F0083099F0003189F0083179F0003269F0003359F0003449F0003649
:2007A00039F0003829F0003C19F00A3F09F007C0153208F004C0102B41F454D0089552D01B
:2007C00011E029E00AEAE7D10895F0939000E0939100F8E0E8E700918C00003071F00A95CB
:2007E000000FE00F00E0F01F059100938F00C89500928E000DBC0CBD0BC008B7047108BF7F
:2008000009B70B7E09BF30E038BB00E002BB03C009B7046109BFA89500918D00901738F04D
:2008200099278827E0919100F09190009BCF63FFF2CF52FFF0CFB9D44738C8F313D0089552
:20084000F894D46000E00FBD02E00EBD9927882708B7047D08BF09B7046509BF01E005BD75
:2008600078940895DB7F00270EBD09B70B7A09BF51D408950000FFFF8BF8F2F85BF9B7F945
:2008800014FA66FAB9FA03FB4AFB8FFBCFFB0BFC43FC78FCABFCDBFC08FD33FD5BFD81FD5D
:2008A000A5FDC7FDE7FD05FE21FE3CFE55FE6DFE84FE99FEADFEC0FEDBFEE3FEF3FE02FFA6
:2008C000B5D5F6D2DAD02AE0A89508B702FF02C0D1D0F8CFF6D075FDF5CF52FFF5CFDBD02F
:2008E00074FFF0CF2A9581F700917000109171000093720010937300C0D0A895E2D075FD70
:20090000DFCFC9D074FFF9CFF8D0009179000E3108F4F3CFF5E0ECED27D170FF3CC00091E4
:200920007000009374000091710000937500E8D2A4D010E02BE03ED1F02F23953BD1E02F0C
:20094000F297F29711D170FF02C0B6D202C000270EBDA895B6D075FD16C19DD074FFF9CF82
:20096000CCD076FD10C177FD04C008B702FFF1CF62C100270EBD81D0A895A3D075FD03C193
:200980008AD074FFF9CFB9D076FDFDC0009179000E3190F323C018D170D00AE0602EA8957C
:2009A00090D075FDF0C052FFFACF75D074FFF5CFE0917700F09176003F96D6D070FF0BC08B
:2009C00000917900053058F3A1D200270093790007E005BDE2CF6A9411F70895F0917400F5
:2009E000E0917500F150FC97B397BED070FDCBC00091700000937600009171000093770057
:200A000001D0089544DE103009F4FFCF0091760010E029E0C0D0009177002395BCD00091CE
:200A200074002395B8D0009175002395B4D005D00C2D11E02AE0AFD00895009175001091F4
:200A40007700011BE02F0091740008F40A9510917600011BF02FF695E795F695E795F69569
:200A6000E795CE2EF695E795F695E795F695E795CE1A089546D21CD208950027009379008E
:200A800000937A0000937D0004BD07E005BD08B7007408BF089552FF12C002B70093710058
:200AA000D09270001D2D1A3050F4133020F4123030F0083520F07061002700937A005B7FA7
:200AC0000895A8957F7D08B706FF0895007408BF00917900039500937900003029F4009118
:200AE0007D00039500937D0000917A00039500937A00053008F070620895F0917000E09123
:200B000071000091720010917300F01790F0F01709F004C0E11768F0E117C9F07064F297A4
:200B2000F297F017A0F0F01709F014C0E11790F40EC07068F296F29600917200F01750F045
:200B4000F01709F004C000917300E11718F07F7B7F77089500917000009372000091710038
:200B6000009373008ADF089500917000109171000F1728F00F1709F004C01E1710F47E7FFF
:200B80000895716008950FE0602EC0D1F6D26A94E1F77F7D95CEF894A895E199FDCF1FBB56
:200BA0002EBB0DBBE29AE19AA895E199FDCFEFD278940895F894A895E199FDCF1FBB2EBBCE
:200BC000E09A0DB37894089510E029E0F3DF009376002395EFDF009377002395EBDF0093B9
:200BE00074002395E7DF0093750000917400209176000A3008F011C0053008F40EC0293074
:200C000008F00BC0223008F408C017DF11E02AE0D1DF0C1509F001C0089507E018E024E0FF
:200C200000937400109375002093760000EB00937700E8DEC9CF72D1C7DF9BD29AD200E077
:200C40000093A00004D1AED075FD9DCF71FD08C00091A000073078F703950093A000F2CF97
:200C60000091A0000030A1F00130A1F00230A1F00330A1F00430A1F00530A1F0063019F06F
:200C8000073029F0FFCF26DBD1DA46D172D2089501E00AC001E008C001E006C002E004C0F1
:200CA00002E002C002E000C00093A20000E00093A100F0D0A3D075FD66CF71FD0AC0009102
:200CC000A1001091A200011788F703950093A100F0CFF1E0E2E00091A000E00F1091A10019
:200CE00010830091A10011E022E16090A000260D52DF0091A000003059F0013089F00230C1
:200D0000B9F00330E9F0043029F1053069F1FFCF00910001109102010E7F10FD01602EC054
:200D200000910001109103010D7F10FD026026C000910001109104010B7F10FD04601EC08A
:200D40000091000110910501077E10FD086011FD006114C000910001109106010F7910FD4E
:200D6000006211FD00640AC000910101109107010C7F10FD016011FD026005C000930001D7
:200D800011E020E105C00093010111E021E100C002DF4CDAC1D08ED006D075FDF4CE71FDE6
:200DA000089556CF87D0F0917600E0917700F296F093AD00E093AE007D7F5FDEA89581DE8D
:200DC00075FD089568DE74FFF9CF97DEF091AD00E091AE00C9DE70FF07C0002700937900B1
:200DE00008B702FD0895EACF00917900D1FD04C00E3120F3726008950830FBCF5BD0F091D4
:200E00007400E0917500F297F297F093AB00E093AC007D7F32DEA89554DE75FD08953BDE76
:200E200074FFF9CF6ADEF091AB00E091AC009CDE70FD07C000270093790008B702FD0895AA
:200E4000EACF009179000E3130F3726008950030F1F00130D9F00230C1F00330A9F0043010
:200E600089F0053061F0063039F0073009F0FFCF4BD081D149D0089547D07FD107C044D0B1
:200E80007CD105C041D0089502D001D000D040D074D10895003039F0013021F0023009F067
:200EA000FFCF01D000D03ED068D1089501EE06C002EC04C004EA02C007E600C010E00DBD61
:200EC0001CBD00E00FBD05E00EBD08B7047008BF089520D1ABD2D26065DF75FD54CE71FF5E
:200EE000FACFDD7FF3C100E804BD43BD08B7007C08BF09B7006C09BF02E005BD089501D068
:200F000000D006D039D1089500E00FC001E00DC002E00BC003E009C004E007C005E005C079
:200F200006E003C007E001C008E000939200D77F677FE0DB0895F8DFF7DF0895801A0000DB
:200F40001019000018190000181A20000000301930143019301400003014301630183019B0
:200F6000301B000040190000401800002019201B301D000000270DBD0CBD089502E00EBDB0
:200F8000F9DF00919300003021F0013039F0023051F024D501E0009393000AC02FD502E097
:200FA0000093930005C031D503E00093930000C0A895F8941CB50DB57894003C80F5459980
:200FC00004C0DED04599F4CF16C0DAD0459BF0CFD1DFA895F8941CB50DB57894003CF8F49F
:200FE0004599F7CFD1D04599F4CFCED04599F1CFCBD04599EECFBEDFA895F8941CB50DB5A0
:201000007894003C60F4459BF7CFBED0459BF4CFBBD0459BF1CFB8D0459BEECF01C045C245
:20102000A9DFA8951CB50DB5003CC8F74599F9CFABD04599F6CFA8D04599F3CFA5D045992E
:20104000F0CF3CB42DB496DFA8951CB50DB5003C30F7459BF9CF98D0459BF6CF95D0459B5E
:20106000F3CF92D0459BF0CFF8945CB44DB47894042D152D06951795150D041D021508F4F4
:20108000CECF021509F003C0131508F4C8CF022D132D06951795130D021D041508F4BFCF8D
:2010A000041509F003C0151508F4B9CF00919300033009F066CF022D132D510E401E469422
:2010C000579446945794469457944694579446945794242C352C409294005092950047E854
:2010E00001E000938B00EED002E00093690000270093AF00F8DE022D013040F0023010F054
:2011000006E001C009E000938800D2C1032D0A30B8F3A4C400E030E002BB38BB0895009146
:20112000020100FD01C0D2C000E002BB37E038BB00EA03BD55276627DD27772703B5039510
:20114000039503950D3F30F403BD21E008D02DD04738A0F3F89437E038BBB9C025E018E635
:20116000A8950FEF0A95F1F71A95D1F72A95B9F7089500D000D001D0F1DFF0DFEFDF0895AF
:2011800000D003D002D001D000D00000089500D000D0F6DFF5DFF4DF08955B7F0EE1009387
:2011A0008A000AE000938900089552FF08950D2D033098F3093088F7D4FD0DC000918A00AB
:2011C0000A9500938A0039F4D2FF72DE577FFF240EE100938A0065FD14C067FD12C0D4FFC1
:2011E00010C000916700B01660F4009169000A950093690031F4B394B39400916800009339
:20120000690002B710917700011B20917600D20A10F40027DD2410E1019FF001D19EF00D5B
:201220005B7F28E0FC1508F0B8CFEE0FFF1F5E7F08F451600F2F0C1950FD01C010F0F02F07
:20124000E3952A9591F7E03009F4E1E04E2F00E8400F08F44FEFD4FF0895463878F06B7FD3
:201260004B1548F40091AF00023031F000916D00400F4B1508F04B2D43BD089562FD506274
:2012800064600895772470928800D0D0B090660044244092940000910601013009F4D064BA
:2012A000FF2400279927882700939D0000939C00009397000093960000910601023010F0F9
:2012C00008E701C009E100936400089523DFA895ABD9D8DFEDDD0EE100938A00CEDB02E005
:2012E00000938900002700937A00A89508B702FF02C0C0DBF3CFE5DB52FFF7CF56DF4738F7
:2013000070F3009189000A950093890071F700917A00053018F7109106010091BA000030BB
:2013200069F000917D00013048F4009179000B3428F4C8DF02E00093690011271093AF0065
:20134000D0611CCE009162008016A8F464FD02C0606108950091040100FD14C000919D0037
:20136000063040F0065000939D00BA9406E8B01668F060620895002700939D0000939C0042
:201380006F7E089500919D000D3308F050620895092D063688F466FD02C060640895009109
:2013A00097000A3040F00A50009397000B2D033B10F00000606808956F7B00270093970092
:2013C0000093960067FF08956F775F7E6160BB27AA27089553FD08C00F2D0E3108F40895E1
:2013E0005860FF24EE2408954F1928F043BDFF24463808F0089550620895E80EF91E0091C0
:20140000970010919600180F091F009397001093960000919D0010919C00180F091F0093FF
:201420009D0010939C0088279927089500E40BBF01E009BF05E005BF0FEF0ABF08BF5527BA
:201440006627DD277727789408953699089505B1172D103019F0113021F0FFCF00936100F1
:20146000089500936300089536990895172D103019F0113039F0FFCF85B000916100800E56
:201480008794089595B000916300900E97940895172D103019F0113021F0FFCF53DF01E035
:2014A00002C076DF00E0702E089501E000938B001ADD30E002E00EBDBB27A895142F2AE0DB
:2014C000120F1B1508F4BB27B43608F002CD00918800D6FD03C0003420F0C0C20A3F08F076
:2014E000BDC232D2042D152D2091950060909400120F061D07951795069517950695179512
:201500000BBD1ABD0EEFD6FD00E609BD08BD08B70C7108BF00270DBD0CBD97DF0BC06DDFA1
:2015200009C058DF55FF06C0D1CE9EDF03C0B0DF55FDCFCCA89539DE08B704FFFBCF609066
:201540008B0024E0260DFAE0E4EAE20F08F4F395099405C048C08BC0CEC011C154C155D25B
:20156000C19B17C0A89508B703FDD3C10DDEC19B10C0459BFCCF08DEC19B0BC0459BF7CF33
:2015800003DEC19B06C0459BF2CFD6FFF0CF7FD1A7C1A895FDDD09DE55FDC1CDC199E2CF72
:2015A000459BFCCFF1DDC199DDCF459BF7CFECDDC199D8CF459BF2CFD6FDF0CF68D1F5DDFE
:2015C00055FDADCD08B704FD85C1C19BFBCFD9DD459BFECFC19BF3CFD7DD459BF9CFC19BDA
:2015E000EECF506477C10AD2C29B17C0A89508B703FD8FC1C9DDC29B10C04599FCCFC4DDC9
:20160000C29B0BC04599F7CFBFDDC29B06C04599F2CFD6FFF0CF3BD163C1A895B9DDC5DD67
:2016200055FD7DCDC299E2CF4599FCCFADDDC299DDCF4599F7CFA8DDC299D8CF4599F2CFFE
:20164000D6FDF0CF24D1B1DD55FD69CD08B704FD41C1C29BFBCF95DD4599FECFC29BF3CFC8
:2016600093DD4599F9CFC29BEECF506433C1B6D1C29B17C0A89508B703FD4BC185DDC29B10
:2016800010C0459BFCCF80DDC29B0BC0459BF7CF7BDDC29B06C0459BF2CFD6FFF0CFF7D02D
:2016A0001FC1A89575DD81DD55FD39CDC299E2CF459BFCCF69DDC299DDCF459BF7CF64DD1A
:2016C000C299D8CF459BF2CFD6FDF0CFE0D06DDD55FD25CD08B704FDFDC0C29BFBCF51DDC5
:2016E000459BFECFC29BF3CF4FDD459BF9CFC29BEECF5064EFC089D1C09B17C0A89508B745
:2017000003FD07C141DDC09B10C04599FCCF3CDDC09B0BC04599F7CF37DDC09B06C0459919
:20172000F2CFD6FFF0CFB3D0DBC0A89531DD3DDD55FDF5CCC099E2CF4599FCCF25DDC099B0
:20174000DDCF4599F7CF20DDC099D8CF4599F2CFD6FDF0CF9CD029DD55FDE1CC08B704FDDA
:20176000B9C0C09BFBCF0DDD4599FECFC09BF3CF0BDD4599F9CFC09BEECF5064ABC03ED145
:20178000C09B17C0A89508B703FDC3C0FDDCC09B10C0459BFCCFF8DCC09B0BC0459BF7CF49
:2017A000F3DCC09B06C0459BF2CFD6FFF0CF6FD097C0A895EDDCF9DC55FDB1CCC099E2CFBA
:2017C000459BFCCFE1DCC099DDCF459BF7CFDCDCC099D8CF459BF2CFD6FDF0CF58D0E5DC22
:2017E00055FD9DCC08B704FD75C0C09BFBCFC9DC459BFECFC09BF3CFC7DC459BF9CFC09BFF
:20180000EECF506467C0EAD0C19B17C0A89508B703FD7FC0B9DCC19B10C04599FCCFB4DC0E
:20182000C19B0BC04599F7CFAFDCC19B06C04599F2CFD6FFF0CF2BD053C0A895A9DCB5DC9C
:2018400055FD6DCCC199E2CF4599FCCF9DDCC199DDCF4599F7CF98DCC199D8CF4599F2CF12
:20186000D6FDF0CF14D0A1DC55FD59CC08B704FD31C0C19BFBCF85DC4599FECFC19BF3CFFD
:2018800083DC4599F9CFC19BEECF506423C03CB42DB45092950040929400530C421C47944D
:2018A0005794042D152DD6FD0BC006951795202F612E26956794160D021F063008F006E0F9
:2018C00020E02DBD2CBD0BBD1ABD08B70C7108BF5F7B089556FF12C02EE104E2602E03C0AF
:2018E00020E104E1602E022D021730F41091880013951093880005C0061518F0002700936A
:201900008800A89552DC55FD0ACC08B704FFF9CFD4CD3CB42DB426943794422C552C40926A
:2019200094005092950000270093880000916700B01648F412E00091AF00023021F00030BB
:2019400009F011E0B10EB9CDF89460908B0024E0260DFCE0EAEAE20F08F4F39509940EC08A
:2019600016C01EC026C02EC000C008E012E0312FC19B10E002BB18BB01E02CC008E014E060
:20198000312FC19B10E002BB18BB02E023C000E114E0312FC29B10E002BB18BB03E01AC077
:2019A00000E111E0312FC29B10E002BB18BB04E011C000E211E0312FC09B10E002BB18BB55
:2019C00005E008C000E212E0312FC09B10E002BB18BB06E000938B007894089500B7077F61
:2019E00000BF172D103019F0113019F0FFCF00EE01C001EE07B904EC06B90895379800B753
:201A0000086000BF04EE07B90895379800B7086000BF05EE07B9089554FD089565FD089566
:201A200067FD089560FF04C0B53080F0B55009C010916400B13010F4A11740F0A11B08F4D5
:201A4000BA95B39419F450610FEFB02E0895403B08F03FCA70FD3ACC716006C001E00093BF
:201A6000BA00AA27BB2777276FDF0091940010919500150D041D079517950695179520912F
:201A80000701023040F0202F612E2695679426956794160D021F0BBD1ABD00E310E023E0D9
:201AA00009BD18BD1DBD2CBD08B7087108BF60908B0024E0260DFDE0ECE5E20F08F4F395F4
:201AC000099405C046C086C0C7C006C146C17E7FBCDC93DC9ADFA89508B704FFFCCFC19B60
:201AE0001DC0A89508B703FDB2CF4EDB71FF4CDBC19B14C0459BFCCF48DBC19B0FC0459BC3
:201B0000F7CF71FD6EC141DBC19B08C0459BF0CF3CDBC19B03C0459BEBCF63C1D5FDDFCF0F
:201B200033DB71FF31DBC199DCCF459BFCCF2DDBC199D7CF459BF7CF71FD53C126DBC199E0
:201B4000D0CF459BF0CF21DBC199CBCF459BEBCF48C162DF52DC52DFA89508B704FFFCCF4A
:201B6000C29B1DC0A89508B703FD71CF0DDB71FF0BDBC29B14C04599FCCF07DBC29B0FC0C9
:201B80004599F7CF71FD2DC100DBC29B08C04599F0CFFBDAC29B03C04599EBCF22C1D5FD66
:201BA000DFCFF2DA71FFF0DAC299DCCF4599FCCFECDAC299D7CF4599F7CF71FD12C1E5DA57
:201BC000C299D0CF4599F0CFE0DAC299CBCF4599EBCF07C1FFDB55FD79CB00DFA89508B714
:201BE00004FFFCCFC29B1DC0A89508B703FD2FCFCBDA71FFC9DAC29B14C0459BFCCFC5DAB0
:201C0000C29B0FC0459BF7CF71FDEBC0BEDAC29B08C0459BF0CFB9DAC29B03C0459BEBCF30
:201C2000E0C0D5FDDFCFB0DA71FFAEDAC299DCCF459BFCCFAADAC299D7CF459BF7CF71FDB8
:201C4000D0C0A3DAC299D0CF459BF0CF9EDAC299CBCF459BEBCFC5C007DCD7DEA89508B7BE
:201C600004FFFCCFC09B1DC0A89508B703FDEFCE8BDA71FF89DAC09B14C04599FCCF85DA36
:201C8000C09B0FC04599F7CF71FDABC07EDAC09B08C04599F0CF79DAC09B03C04599EBCF7C
:201CA000A0C0D5FDDFCF70DA71FF6EDAC099DCCF4599FCCF6ADAC099D7CF4599F7CF71FD40
:201CC00090C063DAC099D0CF4599F0CF5EDAC099CBCF4599EBCF85C09FDE8FDB8FDEA89549
:201CE00008B704FFFCCFC09B1DC0A89508B703FDAECE4ADA71FF48DAC09B14C0459BFCCF17
:201D000044DAC09B0FC0459BF7CF71FD6AC03DDAC09B08C0459BF0CF38DAC09B03C0459B54
:201D2000EBCF5FC0D5FDDFCF2FDA71FF2DDAC099DCCF459BFCCF29DAC099D7CF459BF7CF73
:201D400071FD4FC022DAC099D0CF459BF0CF1DDAC099CBCF459BEBCF44C09ADB55FDB9C8A3
:201D60003DDEA89508B704FFFCCFC19B1DC0A89508B703FD6CCE08DA71FF06DAC19B14C0AD
:201D80004599FCCF02DAC19B0FC04599F7CF71FD28C0FBD9C19B08C04599F0CFF6D9C19BD9
:201DA00003C04599EBCF1DC0D5FDDFCFEDD971FFEBD9C199DCCF4599FCCFE7D9C199D7CF03
:201DC0004599F7CF71FD0DC0E0D9C199D0CF4599F0CFDBD9C199CBCF4599EBCF02C05B7FF9
:201DE00084C0F8943CB42DB478945092950040929400530C421C479457947D7FDF7D042D4D
:201E0000083008F0D062013020F4052D003408F47260242D652C042D152D26956794E0916B
:201E20000701E03061F0E13011F01619020B269567941619020B269567941619020B22E005
:201E400066246DBC2CBD09BD18BD08B7087008BF52FF50C00D2D033010F2093000F6577F78
:201E6000FF2402B710917700011B20917600D20A10F40027DD2410E1019FF001D19EF00D35
:201E80005B7F28E0EE0FFF1F5E7F08F451600F2F0C1950FD01C010F0F02FE3952A9591F76C
:201EA000242FE03009F4E1E04E2F00E8400F08F44FEF421738F0042F021B0F3018F00FE00C
:201EC000200F422F463870F06B7F4B1510F443BD0CC00B2D0E3F18F44B2D43BD06C000E8B3
:201EE00003BD03C062FD1BC96460A89508B703FFFCCFBACD91DDF9CF1093A300089500915E
:0A1F0000A300013009F0BA9431CAC1
:00000001FF
