:100000000C945C000C9479000C9479000C947900A9
:100010000C9479000C9479000C9479000C9479007C
:100020000C9479000C9479000C9479000C94C7001E
:100030000C9479000C9479000C9479000C9479005C
:100040000C9479000C9479000C9479000C9479004C
:100050000C9479000C9479000C9479000C9479003C
:100060000C9479000C947900000000002400270013
:100070002A0000000000250028002B0004040404CE
:100080000404040402020202020203030303030342
:10009000010204081020408001020408102001021F
:1000A00004081020000000080002010000030407FB
:1000B000000000000000000011241FBECFEFD8E0B8
:1000C000DEBFCDBF11E0A0E0B1E0E8EFF3E002C099
:1000D00005900D92A030B107D9F721E0A0E0B1E082
:1000E00001C01D92A632B207E1F70E9483010C9471
:1000F000FA010C94000090E0FC01EC55FF4F2491B4
:10010000FC01E057FF4F3491FC01E458FF4FE491AC
:10011000EE23C9F0222339F0233001F1A8F4213075
:1001200019F1223029F1F0E0EE0FFF1FEE58FF4FDA
:10013000A591B4918FB7F894EC91611126C03095D8
:100140003E233C938FBF08952730A9F02830C9F093
:10015000243049F7809180008F7D03C0809180001A
:100160008F7780938000DFCF84B58F7784BDDBCF1E
:1001700084B58F7DFBCF8091B0008F778093B000E6
:10018000D2CF8091B0008F7DF9CF3E2BDACF1F9276
:100190000F920FB60F9211242F933F934F935F93BB
:1001A0006F937F938F939F93AF93BF93CF93DF937F
:1001B000EF93FF9380912501C0912401D0E087FF48
:1001C00024C01092850010928400809125018F5FD9
:1001D0008093250180912501082E000C990B8C1726
:1001E0009D0724F4809125018C30C4F18091840016
:1001F00090918500049680349C4908F47AC08091DF
:10020000840090918500049676C080912501082E87
:10021000000C990B8C179D07C4F6E09125018E2FD9
:10022000EE0F990BFC01EE0FFF1FE80FF91FE050D6
:10023000FF4F808186FFC9CFE09125018E2FEE0F01
:10024000990BFC01EE0FFF1FE80FF91FE050FF4F65
:10025000808160E08F730E947B00B7CF2091840083
:1002600030918500E09125018E2FEE0F990BFC0156
:10027000EE0FFF1FE80FF91FE050FF4F81819281C1
:10028000820F931F9093890080938800E09125014D
:100290008E2FEE0F990BFC01EE0FFF1FE80FF91FD9
:1002A000E050FF4F808186FF11C0E09125018E2F25
:1002B000EE0F990BFC01EE0FFF1FE80FF91FE05046
:1002C000FF4F808161E08F730E947B00FF91EF916F
:1002D000DF91CF91BF91AF919F918F917F916F915E
:1002E0005F914F913F912F910F900FBE0F901F90F4
:1002F000189580E49CE990938900809388008FEFA3
:1003000080932501E3CF409124014C3008F070C068
:1003100081E0840F80932401642F70E09B01220F01
:10032000331FF901E60FF71FE050FF4F88EB9BE00A
:1003300092838183E9E9F0E05491E5E8F0E084916B
:10034000882399F090E0880F991FFC01E859FF4F2E
:10035000A591B491FC01EE58FF4F859194918FB710
:10036000F894EC91E52BEC938FBFF901E60FF71FA2
:10037000E050FF4F8081807C8960808390E080E046
:10038000FC01EE0FFF1FE80FF91FE050FF4F5081F7
:1003900056FD13C001968C30910591F710928000A4
:1003A00082E0809381001092850010928400B19ABF
:1003B00080916F00826080936F00260F371FF901D4
:1003C000E050FF4F808180648083842F90E0FC01A7
:1003D000EE0FFF1FE80FF91FEF5FFE4F24E938E033
:1003E0004C30F0F78FB7F894318320838FBFF8CF6C
:0803F0004FEFEBCFF894FFCFB3
:00000001FF
