:020000040800F2
:100000006806002039020008410200084302000887
:1000100045020008470200084902000800000000ED
:100020000000000000000000000000004B0200087B
:100030004D020008000000004F02000841070008C0
:10004000530200085302000853020008530200083C
:10005000530200085302000853020008530200082C
:10006000530200085302000853020008530200081C
:10007000530200085302000853020008530200080C
:100080005302000853020008530200080000000059
:100090000000000000000000000000005302000803
:1000A00053020008530200085302000853020008DC
:1000B00053020008530200085302000853020008CC
:1000C00053020008530200085302000853020008BC
:1000D0005302000853020008530200080000000009
:1000E00053020008530200085302000800000000F9
:1000F00000000000000000000000000053020008A3
:1001000000000000530200085302000853020008D8
:1001100000000000000000000000000000000000DF
:10012000530200085302000853020008530200085B
:100130005302000800000000000000000000000062
:100140000000000000000000000000005302000852
:10015000530200085302000853020008530200082B
:1001600053020008530200080000000000000000D5
:10017000000000000000000000000000000000007F
:100180000000000053020008000000000000000012
:10019000530200085302000800F002F800F03CF897
:1001A0000AA090E8000C82448344AAF10107DA45D2
:1001B00001D100F031F8AFF2090EBAE80F0013F0E8
:1001C000010F18BFFB1A43F0010318471C0600007B
:1001D0003C060000103A24BF78C878C1FAD852070C
:1001E00024BF30C830C144BF04680C6070470000B1
:1001F0000023002400250026103A28BF78C1FBD830
:10020000520728BF30C148BF0B6070471FB500F0D0
:10021000E5FA1FBD10B510BD00F031F81146FFF72B
:10022000F5FF00F0CDFA00F04FF803B4FFF7F2FF4E
:1002300003BC00F057F80000094880470948004710
:10024000FEE7FEE7FEE7FEE7FEE7FEE7FEE7FEE786
:10025000FEE7FEE704480549054A064B70470000E3
:10026000590700089901000868000020680600206E
:10027000680200206802002070477047704775468A
:1002800000F02CF8AE4605006946534620F0070002
:10029000854618B020B5FFF7DDFFBDE820404FF0E0
:1002A00000064FF000074FF000084FF0000B21F060
:1002B0000701AC46ACE8C009ACE8C009ACE8C0092D
:1002C000ACE8C0098D46704710B50446AFF3008016
:1002D0002046BDE81040FFF7A8BF00000048704767
:1002E0000400002001491820ABBEFEE726000200F2
:1002F000704700B500F002F800BD00002248006819
:1003000040F00100204908601F481430006840F4A4
:1003100080701D49143108601C48006840F480302A
:100320001B49C1F804031B48006840F00C00194940
:1003300008600846406820F002004860084680686F
:1003400040F0030088600846C06820F00C00C860D8
:100350000F48406820F040700D49486008468068AA
:1003600040F0010088600846806820F00200886044
:100370000846006940F0380008610846406B40F0CC
:1003800001004863704700003038024004230140F8
:1003900000200140000002401C48006840F00400BA
:1003A0001A4908601A48006840F0806018490860DF
:1003B000081D006820F40050091D0860081D006831
:1003C00020F04060091D0860081D006820F04060B2
:1003D000091D08600D48006840F001000B490860E5
:1003E0000C48006820F003000A490860084640688D
:1003F00020F0010048600846806820F00300886013
:100400000846C06840F00100C860704730380240BC
:1004100000080240000002403048006820F48030AC
:100420002E4908600846006820F4802008600846CD
:10043000006840F48030086000BF2848006800F47D
:1004400000300028F9D025484030006840F0805046
:100450002249403108602248006840F44040204969
:10046000086040F203701F4908601C4808300068AB
:1004700040F48050194908310860081F00681A4983
:1004800008401649091D08600846006817490843D6
:100490001249091D0860081F006840F08070091F9C
:1004A000086000BF0D48006800F000700028F9D017
:1004B0000A480830006820F0030008490831086045
:1004C0000846006840F00200086000BF034808309A
:1004D000006800F00C000828F8D17047003802408E
:1004E00000700040003C02400080FCF00C1840000E
:1004F0001048006840F001000E4908600E4800688E
:1005000040F020500C4908600846406820F4C04084
:1005100048600846806840F0705088600846C068AF
:1005200040F01050C8600846406A20F001010248BF
:100530004162704730380240000002400C480068B9
:1005400040F470000A4908604FF0E020406900F074
:100550007F404FF0E0214861064848614FF07F40FE
:1005600088610846006940F0070008617047000094
:1005700088ED00E00487010000B500F001F800BD3F
:100580003248006840F00100304908602F481430BC
:10059000006840F010002D49143108602C480068B4
:1005A00040F400102A4908600846406800F4806062
:1005B00048600846806840F4401088600846C0687B
:1005C00000F44010C8600846006840F4002008604D
:1005D0000846406800F4007048600846806840F4AF
:1005E000401088600846C06800F44020C8604FF49E
:1005F000EE61174841621748808940F40050154960
:1006000088810846808920F4805088810846008AC5
:1006100020F44050088240F2871008810846808903
:1006200040F00C0088810846808940F020008881D5
:10063000252000F01F02012191404209920002F1A1
:10064000E022C2F8001100BF7047000030380240BD
:1006500000000240001001400CB500200190009005
:100660003348006840F4A0203149086000BF30489A
:10067000006800F4003000900198401C0190009840
:1006800018B90198B0F5A04FF1D12948006800F4DD
:10069000003010B10120009001E00020009000988F
:1006A000012844D122484030006840F08050204961
:1006B000403108601F48006840F440401D49086010
:1006C0001B48083000681A4908310860084600686D
:1006D00008600846006840F4805008601648091F0A
:1006E0000860081F006840F08070091F086000BFA4
:1006F0000F48006800F000700028F9D040F2027046
:100700000E4908600A480830006820F003000849D4
:10071000083108600846006840F00200086000BF29
:1007200003480830006800F00C000828F8D10CBD20
:1007300000380240007000400C184004003C0240A9
:100740000448006820B103480068401E0149086061
:10075000704700000000002010B51548006840F404
:100760007000134908601348006840F00100114907
:10077000086000200F49083108600E4800680E49E3
:1007800008400C4908600D48091D0860081F0068F2
:1007900020F48020091F0860002006490C31086001
:1007A000FFF75AFF4FF0006001498039086010BD23
:1007B00088ED00E000380240FFFFF6FE1030002414
:1007C000FFF72AFEFFF794FEFFF7B8FEFFF7E4FD00
:1007D000FFF7D2FEFFF78DFD00BFFEE74FF0407040
:1007E000E1EE100A70470000080800080000002031
:1007F00004000000D40100080C08000804000020D8
:0C08000064060000F00100080000000089
:0400000508000239B4
:00000001FF
