:020000020000FC
:1000000053C582C01895189509947EC05BC0189599
:1000100063C01895189598C0189518951895189557
:10002000189592C01895697A203A2021A02D8F1238
:1000300029C09FB648B3476048BB4FEF44165F06E0
:1000400061F0E1E350918400C51A39F42194340A37
:10005000209440944F0A5F0A4094832C9FBE24BC96
:1000600018958F120FC09FB6E7E1852C48B3487FE3
:1000700048BB9FBE44BC18959FB68A9409F4E6E439
:100080009FBE18959FB68A949FBE189520FDC29A70
:1000900021FDC19A22FDC09AE2E5832C24BC18956B
:1000A000A89518958F12EECFA89511FDEFCFE0918E
:1000B0006500852C20FDC29821FDC19822FDC098C5
:1000C00044BC18959FB640916300415008F40E7FE0
:1000D000409363009FBE18959FB64091640043957E
:1000E000409364004F7019F4BB2019F0BA949FBE7E
:1000F00018954091660043954093660040916700D3
:10010000439540936700F3CF4CB55DB5829B0DC01E
:100110009FB6555B59BD48BD42E045BF48E048BF6A
:100120009FBE18959FB604600BC098B693FCFACF9B
:100130009FB63A0148B559B55B54641A750A106107
:1001400043E045BF9FBE189590E578EC949AC29A1B
:1001500017D0E1F7089594E674EB939AC19A10D002
:10016000E1F7089598E770EA959AC09A09D0E1F707
:1001700008959CE87CE8939AC29A02D0E1F708952A
:10018000F2BF82B78031E8F362B3677C62BB68B3C9
:10019000687F68BB68E0F2BFA89582B78717E8F36D
:1001A0006A95C9F79A95089500D000D000D09FE0D5
:1001B00068E0F2BF81E088BFA89588B780FFFDCFD7
:1001C0006A95B9F79A95A1F7089580918700909163
:1001D000880089569A4739F0C7E8D0E0E6E2859171
:1001E0008993CF38E1F708958091600081BF0F7D3A
:1001F000C7E8D0E080E890E0A895E199FDCF67B727
:1002000060FDFACFCF3881F09FBB8EBB0196E09A9C
:100210006DB317F06993F0CF79917DBBF894E29AB2
:100220006713E19A7894E8CFC2DF8FE981BF089520
:10023000000C111CAA1C8A95D9F70895869FA12C41
:10024000969FA00CC11DDF1F879FA00CC11DDF1F43
:10025000979FC00DD11D08951F7EC3019851660B55
:10026000602763FD9AC007FD4DC0C9E8D0E001C01A
:100270009BDF3FD0BC01A895FF9FAA24C93831F469
:100280009FE1603A8DE2780798F43CC08091890044
:10029000681780918A00780760F792E2CB3841F0C6
:1002A00080918B00681780918C00780710F390E2A2
:1002B000892EA89514FFFDCF1F7E1BD0080E191E96
:1002C000AF1E861B970B805B9F4F815A904080F634
:1002D0008A9479F783E0ACDF1992A99243DFCB3897
:1002E000D9F265DF3FDFCD3811F061DF3BDF7CDF26
:1002F00056C0C30103FF0895A3E0880F991FAA9574
:10030000E1F708951F76F0938500C3019831D0F08E
:1003100003FD1FC0C0918100D09182008C179D0702
:1003200020F4C2E0C09385000AC0C0917F00D09144
:1003300080008C1B9D0B78F4C1E0C0938500CC2716
:10034000DD2716C0933028F0803669E0960703FD5C
:1003500008F30460089560917B0070917C00CCE10B
:10036000D0E06CDFCB3A81E0D80710F0CBEAD1E0E7
:10037000C0937900D0937A0001FF03C082E0B82EC9
:10038000B7C08CE0B816BF1E0895C3E07695679598
:1003900096958795CA95D1F7089588E008278091AA
:1003A0008B0090918C006091890070918A0003FD10
:1003B000ECDF80937F0090938000681B790B16D050
:1003C00080937B0090937C0080918B0090918C00B7
:1003D00060EE71E003FDD9DF861B970B10F480E01F
:1003E00090E08093810090938200089585E595E0E8
:1003F0000196A8959F3F890721F0C0E7DEEF1EDF39
:10040000B9F70895F8948CB59DB56091640078B7FC
:100410007894903872FD6F1FC0916900D0916A0086
:10042000A0906B008093690090936A0060936B00CA
:1004300000906C0010906D0070916E00C0936C0085
:10044000D0936D00A0926E0080199109670B9230D5
:100450006F0728F480E092E060E0D694C79490346F
:100460006F07ABEAB1E0F0F0A0E0B1E27D01A0ECF3
:10047000BAE6FF9F771B0AC0771F001C111C781774
:100480000906160618F0781B090A160AAA1FBB1FD0
:10049000EE1CFA9489F7A095B095AB36BF0710F41F
:1004A000ABE6B0E07D0180936F00909370006093A5
:1004B0007100669597958795C0916900D0916A0003
:1004C000A0906B0073E33CD0C0937200D093730094
:1004D000A092740090316F0718F02F7B54D002C0A7
:1004E00020648CD014FD0ECFC0917900D0917A0099
:1004F000CE15DF0508F0E701CC15DD0508F0E601B3
:100500008BEA91E08C1B9D0BB1F02096B1F01D7F22
:10051000116016FF04C0880F991FCC0FDD1F76E411
:100520009F137CE3C09580951E01F8942C01709375
:100530006500789408951360F2CF1C7F72E5F2CFC6
:10054000879FC10DDF1FAF1E979FC00DD11DAF1E2E
:10055000679FD00DA11C089580916F00909170004D
:1005600060917100C0917200D0917300A0907400EE
:100570000895F2DFC80FD91FA61EC80FD91FA61EE7
:1005800002C0EADFDDDF79B7072E7B7E79BF70E13D
:10059000F894DBBDCABD78BF8CB59DB57894016079
:1005A0006091640078B7903872FD6F1FC81BD90B3B
:1005B000A60AA09263000AF40E7F09BE089526FFE2
:1005C000D8CF80916F0090917000C0917200D0914F
:1005D0007300C80FD91FC80FD91F10C026FFD1CF75
:1005E00080916F0090917000C0917200D091730063
:1005F000879FC10DDF1F979FC00DD11D70E1F8943B
:10060000DBBDCABD78BF8CB59DB50160F0936300BA
:100610007894C81BD90B0AF40E7F0895279670E1D1
:10062000F8948CB59DB5C80FD91FDBBDCABD78BF86
:10063000A092630001607894089514FD63DE00FDCC
:10064000FCCF0895F5BD80E488BFE0E582B3877CE8
:1006500082BB88B3887F88BBF09386000895829B15
:10066000F09366008091660085FF0895E0E0F894BD
:10067000FCE185919491F0E0789401960297A8F3BB
:10068000F894F7BBF4BBF1BB88E181BDF1BD80916B
:10069000600081BFB5CA00240FBEEFE5F4E0FEBFE5
:1006A000EDBF0292E036F00509F4EEE1E015F00549
:1006B000C1F781B780936000A4B6F4BFF8BB87E0B0
:1006C00087BBF5BBF4BBF2BB88E381BB82E083BF91
:1006D00081E08EBDF5BD88E181BD88E081BD67DD2B
:1006E00083DD73DD7894A0FAAF1226F42DDD33DDBF
:1006F00039DD1EC0A2FE04C035DD26DD006818C04D
:10070000A1FE02C036DD14C0F894A3FE05C01CDDB6
:100710001BDD28DD27DDFBCF47DD4A2D58E040FFFC
:100720001ADD40FD26DD41DD46955A95C1F7F4CF2F
:100730000D7F35DE84E588BF89BF83E085BF80E417
:100740008BBFBB24137EF0936600F0936700A895DF
:1007500014FD0AC084DF809167008837C1F78CE3FD
:1007600080936700FFDCF3CF77DDC0917900D091F3
:100770007A00209631F78AE0B81648F3812F8C7002
:1007800009F0FBBFF6DCF5DCF4DC0B7F5BDF0D7FF3
:10079000F0936600F0936700609185007091860089
:1007A0006717E1F04FDF60938600613031F4C8E0F5
:1007B000C0938400CCE1D1E007C0623079F4C0E29C
:1007C000C0938400CCE1D1E08BEA91E08C1B9D0BBF
:1007D000A6DEE1E38824CC2481E085BDA89514FD44
:1007E0000CC0BB20D9F73BDF809167008E31B1F799
:1007F00029DFDDDCB7DCAFDC9BCF84DDBB2071F310
:10080000209609F4C5CF1EDF80B7886080BFC7E49B
:10081000D0E06E010260DBD0F0937500F0937600BB
:10082000F093770082E0B82E86E0809362008CE03F
:100830008093610081E085BD17FD39C0CCD084E094
:1008400087B93798949810FD959AC3D0379AF89441
:10085000287F226088B3C09898B38913C19A78948E
:10086000BAD085E087B93798959810FD939AB1D0A2
:1008700084E087B93798F894287F216088B3C198BD
:1008800098B38913C29A7894A6D0379A939810FD9A
:10089000949A9FD085E087B93798F894287F246090
:1008A00088B3C29898B38913C09A789438C091D00D
:1008B000379AF894287F216088B3C09898B3891339
:1008C000C29A789488D084E087B93798949810FDBC
:1008D000939A7FD085E087B93798F894287F226073
:1008E00088B3C29898B38913C19A789474D0379A10
:1008F000939810FD959A6DD084E087B93798F89455
:10090000287F246088B3C19898B38913C09A7894DB
:1009100062D085E087B93798959810FD949A8091B8
:1009200085008F132FC080916100E601209659F158
:100930008C30C8F483958093610029968BE690E013
:1009400060917700709176007C5F7093760021F45F
:10095000605FD1F060937700603168F0703358F0D9
:1009600081E190E008C01F7BF0937700F093760060
:100970002E968BEA91E0C817D90710F06C015CCF76
:100980006E015ACF03CF3FCF5DDE0D7F0DDC0CDC57
:10099000F0DBB8DC2096D1F7CBCEE0E588B3887FDA
:1009A00088BB81E0809362005CC016FD08C0BC304B
:1009B00030F0BBE0AB1708F4AB2F01DE45C0F0937D
:1009C000610070917500715F16FD70937500106481
:1009D00048C01F7D01C0106280916200815050F0BC
:1009E0008093620016FF18C0C0E0DFEFAF2E16DE66
:1009F000A3E029C0E03509F4E2E516FD3EC07BE145
:100A0000EDDD1BDE79E5EADD00FFC7CF14FD7ADC02
:100A100068B1612765FDF8CFA0917000B0917100B9
:100A2000B695A795B695A795A330BF0750F051F09E
:100A3000AD30BF0708F0ADE0AC3020F073E3CEDDA1
:100A400002C0A3E0BCDDBA2F00FFAFCF14FD5ADC1B
:100A500068B1612765FD03C0AB17AF1FF5CFAA953D
:100A600099F7D0DC16FFE9DD809162008F131E7FBD
:100A7000BF1208958F918F9189CEC0E0D0E070E0D1
:100A8000A72E80916100823030F47091750080E073
:100A900090E460E055DDC2DDD0DDC0E0DCED75E066
:0A0AA000A72EBCDDAFE7CFCFF6CDE7
:101C0000E4E0FFE5FEBFEDBF00E0ECEBFEE0C0E886
:101C1000D0E0A0E6B0E042E045BD5CEE539571F047
:101C200040EC04BD48BFA03619F0E8B6E6FC46C05B
:101C30008299F9CF04BD48BFE8B6E6FCE1C1829BBA
:101C4000FBCF04BD48BFE8B6E6FCE8CF8299FBCFE6
:101C500034B404BD48BFE8B6E6FCD2C1829BFBCFDA
:101C600024B4022C030C802C07940694402C069478
:101C70008008809420943094409460EE83E084BC8B
:101C800048BFE8B6E6FCBCC1829BFBCF84BC48BF22
:101C9000E8B6E6FCC3CF8299FBCF0894E8B6E6FC31
:101CA00023C0829BFBCFE8B6E6FCB8CF8299FBCF7E
:101CB0008894E8B6829BE6FC17C0FBCF43BC87E163
:101CC000929A8A9A34BC48BFE8B6E6FEFDCF929855
:101CD00024BC48BFE8B6E6FEFDCF8A9589F7C0E68A
:101CE000D0E060E081E00BC0679548F6815068F570
:101CF0005CEE0994CA17DB07D1F0699188E066951C
:101D0000929A34BC48BFE8B610F0E7FC02BBE6FE8E
:101D1000FACF929808F0929A24BC48BFE8B610F027
:101D2000E7FC02BBE6FEFACF8A9549F7E3CF929A29
:101D300034BC48BFC0E8D0E0A0E6B0E0E8B6E7FEBB
:101D4000FDCF8A9802BB6ACF80E060E898CFECEBC9
:101D5000FEE0C0E8D0E0F8CF009000000090000066
:101D60000090000000900000009000000090000033
:101D70000090000000900000000000006B3121F78F
:101D8000562E3796E1CF962E56263496DDCF762EF8
:101D900056263496D9CF662E56263496D5CF6E3039
:101DA000B1F656263596D0CF69935626CF3584E0C6
:101DB000D80768F681E0681A700A09F43C96C4CF27
:101DC0006511C5CFC0E8D0E0699199918991FD0175
:101DD0007BE170839182028372E073837EE074837F
:101DE0006583068317966130A1F48BE0838388E0D6
:101DF0008D93EF01ECEDFFE185918D93E43EE1F7EA
:101E0000FE01819161918627EA17FB07D9F78D932F
:101E10009ECF6D3151F5792F90E0039683839283A5
:101E200003970D938A95E9F789916991603380074B
:101E300094E0790779F460878991803059F4699149
:101E400060308EE131F0613083E919F0623087E073
:101E500009F482870D93D5CF8017900709F5D990A3
:101E6000C9905601AA0CBB1CCCCF6330E1F06230A4
:101E700041F2603131F2613121F2663069F3623151
:101E8000F1F1833F73E0970758F4643109F166314B
:101E900069F127966531C1F16331F9F10000000065
:101EA00080EC8683AECF90398FE071F0913982E07B
:101EB00059F092398AE041F0943982E329F0903860
:101EC00080E011F0913861F78D9383E0838399CF9F
:101ED00049D0EF01F5018FD076FDFDCF65916D936F
:101EE0000197E1F75F01FE010D938BCF3BD011E02D
:101EF0003ED06DB36D930197D9F70D9382CF47D044
:101F0000000080E092E0689416E06FEF0EF06991B7
:101F10002ED00197D1F7E89474CF8F7F61E07F01D5
:101F2000F5010990199068D032960297D1F70F0108
:101F3000F501500163E0E03C7FE1F70719F058D06C
:101F4000F7015FCF0BD065E009D061E107D0F8CF92
:101F500077B770FDFDCFE199FECF0895F9DF67BF38
:101F6000E8950895039692838383039708953AD062
:101F7000DFBACEBA0894C01ED01E762FE09A6DB399
:101F8000671312FF08957DBBE29A1CBB08957F0181
:101F9000E0E0FCE163E0E054F0402ED0E1F76F01B7
:101FA000F70108950000000000000000000000009C
:101FB0000000000000000000000000000000000021
:101FC000687474703A2F2F6769746875622E636F36
:101FD0006D2F73696D2D2F7467792F00415652490B
:101FE00053505F3277B770FDFDCFE199FECF089572
:101FF00003D065E001D061E1F5DF67BFE8950895A2
:00000001FF
